:020000040800F2
:10000000D0040020DD130008F9130008FD130008D8
:10001000011400080514000809140008000000007D
:100020000000000000000000000000006D13000848
:100030000D140008000000006F1300087113000881
:100040001114000815140008191400081D140008E4
:100050002114000825140008291400082D14000894
:100060003114000835140008391400083D14000844
:100070004114000845140008491400084D140008F4
:100080005114000855140008591400085D140008A4
:100090006114000865140008691400086D14000854
:1000A0007114000875140008791400087D14000804
:1000B0008114000885140008891400088D140008B4
:1000C0009114000895140008991400089D14000864
:1000D0007F130008A1140008A5140008A914000843
:1000E000AD140008B1140008B514000870B504463A
:1000F00004F1500582B0687801281E4657D109B135
:10010000100001D1012076BD287801284FD000F0E1
:1001100024F900F031F901D100F036F900F013F9BB
:1001200020680268510603D4036843F0400303606B
:10013000E1686068002917D138B1E18E012906D144
:1001400003E000F0A3FA002840D100F04DF8E08E63
:100150000028F6D1A16AB1F5005F2FD120680268AE
:1001600042F48052026029E000281CBFE18E012980
:1001700005D100F032F82163E08E411EE186E08E69
:10018000B8B100F083FA002820D1F2E7334600F03E
:100190001FF8B8B9A06828B92068C16800918068C4
:1001A00000900099012068700020287076BD022020
:1001B00076BD00F0E1F801D100F020F800F066FA19
:1001C0000028E3D0686840F010006860032076BD26
:1001D00001228021204600F064BA206B2268018849
:1001E000D160206B811C7047206B411C216321680A
:1001F0000078C860E08E411EE18670472068016883
:1002000041F480510160704738B500F150046378C3
:10021000012B3DD109B1130001D1012032BD23785A
:10022000012B35D0012525700023222565706360E0
:1002300081638287C2870FF2A93383640023C3647A
:1002400003638386C3868368B3F5004F12D10168C8
:100250000A6822F480420A6000F05CF801D100F0E4
:1002600067F801684A6842F060024A600021217024
:10027000006898E0002B04BF4368B3F5827FEBD1A0
:100280000025257001B0BDE8304013460A4601E064
:10029000022032BD70B500F150056C78012C08D0F9
:1002A0004668B6F5827F01BF8468002C6E78222EE6
:1002B0002ED1002918BF002A01D01C0001D1012035
:1002C00070BD2C78012C23D001262E706C78222C46
:1002D0001CBF32266E7000246C6001638386C38667
:1002E00082638387C3870FF2CD210FF2CD1481641F
:1002F000C46400F00FF801D100F01AF801684A68F0
:1003000042F0E0024A600021297000F007F870BD59
:10031000022070BD816AB1F5005F70470068016816
:100320004A0603D4026842F040020260002070478F
:1003300001680A6822F400520A6001680B6843F4FD
:1003400000530B607047A068B0F5004F04D12068DF
:10035000016841F480410160704701232B70002047
:1003600012236B706860E064A064A063A087E087DC
:100370002163A286E2867047A06AB0F5005F7047ED
:10038000606D40F0020060652068016821F4005152
:1003900001602068026842F40052026070474160C8
:1003A00000202870206801684A0603D4026842F0E1
:1003B00040020260002032BD82B001684A685306E4
:1003C00008D58A68D30705D58A68530602D4816C9C
:1003D00002B008474A68130605D58A68930702D514
:1003E000C16C02B008474A68930636D58A68D306BE
:1003F00006D5426D42F0020242656FF010038B6039
:1004000001688A6893060BD5426D42F0010242658D
:100410008A6800920A6822F040020A6000920099FD
:10042000026891684B060CD590F85110122908D03B
:10043000436D43F004034365D168009193680093D2
:100440000099416D49B1536823F0E00353600121E5
:1004500080F8511002B000F06EB902B0704790F809
:100460005100704710B582B004460A2300220221D1
:1004700000F017F900F0D8F82068416821F08001F9
:100480004160206841684A0614D4416821F0200187
:1004900041600A23FFF79CFE00F0C6F800F0CAF89E
:1004A00038B994F85110322900D1F4E000F07DF809
:1004B000B6E074E013BD000010B5C168026800F139
:1004C00030030029196805D1491C196011F8014D44
:1004D000D46003E031F8024BD4601960D988491E1A
:1004E000D98089B249B9FFF715FF03D1136843F4E6
:1004F00080531360BDE81040B4E710BD10B582B062
:1005000004460020ADF80000A16AB1F5005F17D1E4
:100510000A2300F0B7F800F0A4F800F099F80FD51E
:1005200094F85100222804D1204600F049F901280E
:1005300002D1FFF725FF03E021686FF0100088600B
:100540002068416821F040014160206841680A0646
:100550001AD4416821F0200141606068B0F5827FC3
:1005600007D100F012F818BFB0F5806F01D100F08C
:1005700010F8606D38B994F85110322900D18AE032
:1005800000F013F860E00AE013BDA068B0F5004F7A
:1005900070472068016821F040010160704700F059
:1005A00004F8BDE8164000F0C6B8012084F85100F8
:1005B00020467047C168826B0368002907BFDB686B
:1005C00002F8013BD96822F8021BC18F8263491EE1
:1005D000C18789B2002908BFFFF790BF70470000AC
:1005E000C168826B0368002907BFDB6802F8013B22
:1005F000D96822F8021BC18F8263491EC18789B264
:10060000012904BF826AB2F5005F04D10268136851
:1006100043F480531360002908BFFFF76FBF704792
:10062000BDE8164000F0CEB818B1606D40F0100083
:1006300060657047A06828B92068C168009180682B
:1006400000900099606D7047BDE8164000F063B9F6
:1006500018B1606D40F01000606521688868C106BF
:10066000704718B1606D40F0100060650A23216882
:10067000C868ADF800000122BDF800100121204635
:100680000FE02B460022012120460AE033460022DB
:100690000221204605E0FFF788FFBDE8164000F084
:1006A00053B92DE9F04105460E4690461C4600F030
:1006B0004DF9B8F1000F074635D1286881683140FF
:1006C000B14235D014F1010FF7D074B100F03EF90A
:1006D000C01B8442F1D208E014F1010F23D024B1F1
:1006E00000F034F9C01B84421DD22868416821F013
:1006F000E00141602868FFF74DFFA86AB0F5005F90
:1007000009D12868016821F4005101602868026855
:1007100042F40052026005F15000012141700021B5
:100720000170032005E0286881683140B142D3D0D0
:100730000020BDE8F081704710B5040001D1012010
:1007400010BD94F8510010B9204600F045F902217F
:1007500084F851102068016821F04001016062684E
:10076000A068A1690243E06802432069024360690E
:10077000024301F40071E0690A430243206A024324
:10078000A06A024320680260A169606A090C01F056
:1007900004010143206841602068E16A016120682A
:1007A000C16921F40061C161002004490870002181
:1007B0006165012084F85100002010BDC8000020B0
:1007C000012070477047000070B586B000F062F9F4
:1007D00000F071F85648574C0168574D41F004013C
:1007E0000160026802F00402009200220099016890
:1007F00041F0080101601021006800F0080000903D
:10080000009800F055F8102001900121022002917B
:10081000049001A9204600F04FF9484828604FF4A1
:10082000827068600020A860E860286168614FF409
:100830000070A8610020E86128626862A8620A204E
:10084000E8622846FFF778FF00B1FEE73C4E3D48DE
:10085000306000207060B060F06030617061B06145
:10086000F06130627062B0620A20F0623046FFF7D9
:1008700063FF00B1FEE7062206F158013046FFF79C
:10088000C3FC002200F013F841F28833082205F17E
:1008900058012846FFF72AFC012200F008F82846F4
:1008A000FFF7DDFD0128FAD100F0E6F9E9E71021B4
:1008B000204600F0C0B900B58FB00220059001219C
:1008C000099110200A9000210C9105A800F0E0F990
:1008D00000B1FEE70F21019000914FF480600021EC
:1008E000039002910491684600F053FB00B1FEE7CB
:1008F00000F006FC4FF47A71B0FBF1F000F065FCFB
:10090000042000F076FC002200214FF0FF3000F0C0
:1009100035FC0FB000BD0A4B00681968884205D14C
:10092000062203F158011846FFF76EBC704700001D
:100930001810024000080140000000200030014073
:100940006400002000380040704700000148006843
:10095000704700BFC400002080B54848016841F0DE
:1009600001010160006800F0010000900098032080
:1009700000F0F7FB002200216FF00B0000F0FEFBFF
:10098000002200216FF00A0000F0F8FB0022002195
:100990006FF0090000F0F2FB002200216FF004006C
:1009A00000F0ECFB002200216FF0030000F0E6FBFA
:1009B000002200216FF0010000F0E0FB0022002186
:1009C0004FF0FF3000F0DAFB2D48016821F0E061C4
:1009D00041F00071016001BD10B586B000F049F82A
:1009E0001BD10868274C40F4805008600222096837
:1009F00001F480510491A0210498009103200390F8
:100A0000019200F032F84020002100900191029103
:100A10002046694600F050F825E01B4A904222D15A
:100A200048681A4C40F4804048600022486800F44E
:100A3000804004904FF4304104980091019202925A
:100A400000F013F84FF48040009002210320019140
:100A5000039000F00AF800220021242000F08EFB11
:100A6000242000F0A8FB06B010BD6946204600F027
:100A700023B80068064A01499042704718100240A6
:100A8000040001400008014000380040000C014013
:100A90000030014080B50748016841F01001016055
:100AA000032000F05EFB002000F0BFFBFFF754FFC7
:100AB000002002BD002002402DE9F8470246002038
:100AC0008646604BDFF88081DFF880914FF00F0A97
:100AD00001240F6804FA0EF63740B74240F0A380B5
:100AE0004C683CB3012C1AD0022C1DD0032C2CD006
:100AF000112C16D0122C1AD0554DAC421CBF554D9E
:100B0000AC4217D0544DAC421CBF544DAC4211D036
:100B1000534DAC421CBF534DAC420BD016E0C868DD
:100B200014E0C868001D11E0C86808300EE0C8680D
:100B30000C300BE0886808B9042007E0012819BFD1
:100B4000082056610820166100E00020B7F5807F7C
:100B500003D294464FEA8E0404E0AEF1080402F199
:100B6000040CA400DCF800500AFA04F6B54300FABD
:100B700004F42C43CCF800404C68E40053D5D9F879
:100B8000004044F00104C9F800404FEA8E06D9F84D
:100B9000005005F0010500954FEA9E05009C58F8AD
:100BA000254006F00C0C0AFA0CF6B4432E4EB24265
:100BB00008BF00260ED02D4EB24208BF012609D034
:100BC0002B4EB24208BF022604D02A4EB2420CBFBE
:100BD0000326042606FA0CF6344348F82540FE4363
:100BE0004C68E50303D51D683D431D6002E01C68A9
:100BF00034401C604C68A5035C684CBF3C433440E7
:100C00005C604C68E5029C684CBF3C4334409C608F
:100C10004C68A50203D5DC682743DF6003E0DF688A
:100C200006EA0704DC600EF1010EBEF10F0F7FF63D
:100C30004FAFBDE8F18781B002B90904016101B08D
:100C400070470000000401400800014018100240F5
:100C500000001110000012100000211000002210EE
:100C6000000031100000321000080140000C01406B
:100C7000001001400014014011B581B0FFF766FE7D
:100C80000446FFF763FE0199001B8842F9D313BDA8
:100C90002DE9F041044682B02078DFF86C54C1079A
:100CA00040F1D580686800F00C00042805D000F001
:100CB00005FA0AD16868C10307D500F065F939D093
:100CC0006068002828D101204EE16068B0F5803FBF
:100CD0000FD038B9296821F480312960286820F4C0
:100CE000802009E0B0F5A02F296807D141F48021C8
:100CF0002960286840F48030286006E021F48031C3
:100D000029602A6822F480222A60606868B1FFF7AF
:100D10001DFE064600F038F940F09980FFF716FEF8
:100D2000801B6528F6D303201EE1FFF70FFE064661
:100D300000F02AF900F08B80FFF708FE801B652881
:100D4000F6D3F0E7FFF702FEC01B022840F2AC80AA
:100D5000E9E7206970B101213160FFF7F7FD07462F
:100D600000F00DF940F0C780FFF7F0FDC01B02282E
:100D7000F6D9D8E73060FFF7E9FD074600F0FFF845
:100D800000F08480FFF7E2FDC01B0228F6D9CAE715
:100D90000860FFF7DBFD074600F08BF900F08A8062
:100DA000FFF7D4FDC01B0228F6D9BCE708B9286AB2
:100DB00009E00528286A06D140F004002862286A64
:100DC00040F0010005E0400840002862286A20F059
:100DD0000400286241F28937E06870B1FFF7B6FD80
:100DE0008046286A00F066F940F09280FFF7AEFD79
:100DF000A0EB0800B842F4D395E7FFF7A7FD8046C3
:100E0000286A00F057F900F08380FFF79FFDA0EB00
:100E10000800B842F4D386E7FFF798FDC01B02280C
:100E200040F283807FE7FFF791FD001B022840F22C
:100E3000968078E700F09AF8044600F09BF800F0FE
:100E40009280FFF783FD001B0228F6D96BE720781C
:100E5000DFF8C062810719D5686810F00C0F07D061
:100E600000F02CF97FF475AF6868C1033FF571AFEE
:100E700000F085F81CBF206901287FF424AF2968A1
:100E8000606921F0F80141EAC00129602178080772
:100E900010D5A069DFF8801200283FF479AF012255
:100EA0000A60FFF753FD074600F003F93FF44AAF2D
:100EB000FFF7E2FE207841072AD5E869DFF85C8277
:100EC00040F08050E861E86900F0805000900098A0
:100ED000D8F8001041F48071C8F80010FFF736FD13
:100EE0000746D8F80000C1050DD4FFF72FFDC01B41
:100EF0006528F6D317E72868616920F0F80040EA12
:100F0000C1002860C2E7E06801287FF44FAF56E7D0
:100F1000E06940B3696801F00C0108293FF4D3AEE1
:100F2000022887D100F022F8074600F023F87FF46A
:100F300073AF206AB0F5803F05D16968A06821F4DD
:100F40000031014369606968206A21F4741101432A
:100F5000606A01436960012000F009F8044600F06E
:100F600009F83FF460AF0020BDE8F681002030664C
:100F7000FFF7ECBC2868C0F3406000287047286881
:100F8000C0F34000002870472868C0F340400028A4
:100F900070472DE9F843624F06463868884600F0EE
:100FA0000700404502D200F07AF86CD13178564DF6
:100FB000880705D56968B06821F0F00101436960D0
:100FC0003078C10757D57168012903D12868C0F36B
:100FD000404004E00229286803D1C0F3406018B9FA
:100FE00051E000F067F84ED06868800841EA80015F
:100FF000696041F28939FFF7A9FC0446706801284D
:101000000BD1686800F00C00042834D0FFF79EFC78
:10101000001B4845F5D303202BE0022835D100F012
:101020004DF828D0FFF792FC001B4845F7D3F2E7B4
:101030003078410705D56968F06821F4E061014323
:1010400069603078010706D56868316920F460501E
:1010500040EAC100686000F036F86A683149C2F3BE
:101060000312895C294AC8401060002000F0DDF8B6
:101070000020BDE8F283386800F007008045D7D231
:1010800000F00DF8D4D00120F3E7686810F00C0FE1
:10109000F1D0FFF75BFC001B4845F6D3BBE739688E
:1010A000C90848EAC1013960386800F007004045C6
:1010B0007047686AC0F3400000287047686800F015
:1010C0000C000828704718490A6802F00C0008282C
:1010D00014D10FF25C03C2F38340D203185C0AD52B
:1010E00009680FF25C030A4AC1F34041595CB2FB44
:1010F000F1F1484370470D49484370470448704731
:1011000002480068704700000010024060000020A4
:1011100000127A0000004242800442420070004007
:10112000002002409C1200080410024000093D000B
:1011300002030405060708090A0B0C0D0E0F101018
:10114000010200000901002881B006D52F4A00F0F5
:101150000F00104400F8041C01E02D4A115401B0A6
:1011600070472C4A13684FF6FF0100020B4000F451
:10117000E0601843284908431060704738B5254B94
:101180001C68C4F30223C3F10704052C28BF042400
:101190001D1D072D34BF0023DB1E012505FA04F4B5
:1011A000641E2140994005FA03F35B1E1A40114367
:1011B000BDE83440C6E7012200F01F01174BFFE7EE
:1011C0008A40400943F82020704710B5401EB0F116
:1011D000807F01D3012010BD114C60600F214FF0C2
:1011E000FF30FFF7AFFF0022A26007202060002041
:1011F00010BD04280A4904D1086840F004000860C2
:1012000070470A6822F004020A60704718ED00E097
:1012100000E400E00CED00E00000FA0500E100E071
:1012200010E000E000F000B8704710B50446FFF78A
:1012300067FF4FF47A71B0FBF1F0FFF7C6FF0022B1
:1012400021464FF0FF30FFF799FF002010BD00004E
:101250000E49086840F0010008604A680C480240E6
:101260004A600B680B4803400B60086820F480203C
:1012700008604FF41F004A6822F4FE024A6088604A
:101280004FF0006004490860704700000010024001
:101290000000FFF8FFFFF6FE08ED00E00000000090
:1012A00000000000010203040607080919E050F8D5
:1012B000042BD30744BFA9F101039A18091F002387
:1012C000042942F8043BF9D25FEA817C134604D535
:1012D0004FF0000CA2F800C09B1CC90744BF0021BE
:1012E000197050F8041B0029E1D1704730B501682E
:1012F00084684218416802EB5103C9070BD54C447E
:1013000009E012F9011B12F8015B002904F8015BE6
:1013100005D5491CF9D19A42F3D10C3030BD491E94
:10132000F1D5F8E710B5074979441831064C7C44EB
:10133000163404E00A68081D114488470146A1429A
:10134000F8D110BD080000002400000061FFFFFF7D
:1013500068000000640000200000000091FFFFFF13
:10136000580100001E000000000000207047704778
:1013700080B500F009F8BDE80140FFF753BF014810
:10138000FFF71AB86400002002480168491C016098
:10139000704700BFC400002000F00BF8002801D007
:1013A000FFF7C0FF0020AFF30080FFF70DFA00F059
:1013B00002F80120704700F001B8000007463846E7
:1013C00000F002F8FBE7000080B5AFF30080024AAE
:1013D00011001820ABBEFBE7260002000148804741
:1013E0000148004751120008ED130008AFF30080D8
:1013F000AFF30080FFF7D0FFFFF7FEBFFFF7FEBFA0
:10140000FFF7FEBFFFF7FEBFFFF7FEBFFFF7FEBF10
:10141000FFF7FEBFFFF7FEBFFFF7FEBFFFF7FEBF00
:10142000FFF7FEBFFFF7FEBFFFF7FEBFFFF7FEBFF0
:10143000FFF7FEBFFFF7FEBFFFF7FEBFFFF7FEBFE0
:10144000FFF7FEBFFFF7FEBFFFF7FEBFFFF7FEBFD0
:10145000FFF7FEBFFFF7FEBFFFF7FEBFFFF7FEBFC0
:10146000FFF7FEBFFFF7FEBFFFF7FEBFFFF7FEBFB0
:10147000FFF7FEBFFFF7FEBFFFF7FEBFFFF7FEBFA0
:10148000FFF7FEBFFFF7FEBFFFF7FEBFFFF7FEBF90
:10149000FFF7FEBFFFF7FEBFFFF7FEBFFFF7FEBF80
:1014A000FFF7FEBFFFF7FEBFFFF7FEBFFFF7FEBF70
:1014B000FFF7FEBFFFF7FEBFA8000B612E73656C40
:0714C000616D0000A24A0467
:04000005080013EDEF
:00000001FF
